:0E0000000C9445000C9400000C9400000C942D
:10000E0000000C9400000C9400000C9400000C9462
:10001E0000000C9400000C9400000C9400000C9452
:10002E0000000C9400000C9400000C9400000C9442
:10003E0000000C9400000C9400000C9400000C9432
:10004E0000000C9400001027E80364000A00010071
:10005E000010000110000100416C692053686F6BA5
:10006E006F6F6869000080C00D00600266000D00B1
:10007E006D02660002007A0274000000F894EE270A
:10008E00ECBBF1E0FBBFEBBFE5BF8DE0A2E0BB2711
:10009E00ED938A95E9F780E098E0A0E6ED9301975D
:1000AE00E9F7E6E7F0E085919591009761F0A5916B
:1000BE00B59105901590BF01F00105900D92019735
:1000CE00E1F7FB01F0CFEFE5EDBFE8E0EEBFC0E6F4
:1000DE00D2E00C947200E0E0EBB9E8E1EAB9E6E8B0
:1000EE00E0BDE0E0E0BDE3E3E9B9A0E1AAD00E9403
:1000FE0056011E2FA12F0E945A01A12F7AD0133420
:10010E0021F46BD00E94610120C01E3441F40E9484
:10011E006101A0E6B2E01BD00E94610116C0133649
:10012E0041F400E0083120F40E9461010F5FFACF24
:10013E000CC01D3451F40E9461014FD0E0E0EA93EF
:10014E00A0E03ED0ADE6B2E06BD0D1CFFFCFBA93F8
:10015E00AA931A9310E0A981BA81EE27A10FBE1FB0
:10016E00EC91E03051F0A981BA81EE27A10FBE1FAC
:10017E00AC910E945A011F5FEECF60C0AA93E5B307
:10018E00EF70AE2FE881E07FEA2BE5BB8DE08A951C
:10019E00F1F7AA9A8DE08A95F1F7AA988DE08A95E3
:1001AE00F1F70C945F01AA93A881E8DFE881E2954C
:1001BE00E883A881E3DF85E88A95F1F70C945F0167
:1001CE00AA93E881F0E0E658FD4FE081A981AE0FD9
:1001DE00EADF5980488022960895A2E00E946701C6
:1001EE00ACE0E1DFA1E00E946701E0E04E2E5E2E62
:1001FE000895AA93A881AA3011F0571450F0E0E0A8
:10020E00EA934394A42DDCDFA881AA3011F40C9458
:10021E005F015394A89AA881C6DFA8980C945F0139
:10022E00BA93AA931A93A981BA81ED91A983BA833D
:10023E001E2FE03019F0A12FDCDFF5CF18812396A9
:10024E000895AA93E4B3E06FE4BBA29AA09AA19A90
:10025E00AA98A898A9987880E881E058E0937C0243
:10026E00E881E054E0937D02A4E1B0E00E947501C4
:10027E000E946D010E946D010E946D01A0E27EDF61
:10028E0088EC90E00197F1F7A8E28DDFA4E08BDF18
:10029E00A5E889DFA6E087DFA0DF0C945F015F9BF6
:1002AE00FECFECB10895AA935D9BFECFE881ECB929
:1002BE0021960895ADE00E945A01AAE00C945A01CD
:1002CE000E94DA00A3E0B0E00C947501A0E30E9456
:1002DE00C50088EC90E00197F1F70895109639F07B
:1002EE00A89580ED97E00197F1F71197C9F708955A
:00000001FF
