:060000000C944A000C9470
:1000060077000C947F000C9487000C9400000C94ED
:1000160000000C9400000C9400000C9400000C945A
:1000260000000C9400000C9400000C9400000C944A
:1000360000000C9400000C9400000C9400000C943A
:1000460000000C9400000C9400000C940000102793
:10005600E80364000A00010000100001100001001E
:1000660000002020000001002D4E414E00494E4662
:10007600000080C002000400660003006002680001
:10008600010063026C000200670278000000F89429
:10009600EE27ECBBF1E0FBBFEBBFE5BF8DE0A2E0D6
:1000A600BB27ED938A95E9F780E098E0A0E6ED930B
:1000B6000197E9F7EAE7F0E085919591009761F0FD
:1000C600A591B59105901590BF01F00105900D928F
:1000D6000197E1F7FB01F0CFEFE5EDBFE8E0EEBFFA
:1000E600C0E6D2E00C9494000E94930119F4EAE071
:1000F6005E0E01C0539411C00E94930119F4EAE008
:100106005E1A01C05A9409C00E94930119F444244E
:10011600AB9803C0E1E04E2EAB9AE991EFBFE991AF
:100126001895E0E0EABBEBBBE7BBE8BBE8E0E4BB65
:10013600E0E0E5BBE1BBE2BBEBB7E06EEBBFEAE0BC
:10014600E5BFE0E0E4BFE0EEEABFE0E8E8B9E0E002
:10015600E0BFA0E10E94640178942297E0E0E88382
:10016600E983EA93A0E00E942101E52DF0E0E7FD96
:10017600FFEFFA93EA93AA81BB810E94D100A8817E
:10018600B9810E945301A0E6B2E00E945301A4E1A6
:10019600B0E00E94B1012296E0CFFFCFBA93AA93B6
:1001A600A991B991E991F99130962AF4E095F095E3
:1001B60031966DE26D93E89480E197E20DD088EE7A
:1001C60093E00AD084E6992707D08AE005D06E2FFF
:1001D60010D066276C9308956627E817F90720F074
:1001E6006395E81BF90BC9F7662311F416F0089519
:1001F6006894605D6D9308951A931A2FE5B3EF70B6
:10020600AE2FE12FE07FEA2BE5BB8DE08A95F1F773
:10021600AA9A8DE08A95F1F7AA988DE08A95F1F76A
:100226007DC0AA93A881E8DFE881E295E883A881EA
:10023600E3DF85E88A95F1F7219608951A930A93E4
:100246001A2F0A81E12FF0E0E959FD4FE081E00F16
:10025600AE2FE7DF702E612E19810881239608954F
:10026600A2E00E949901ACE0DCDFA1E00E949901C6
:10027600E0E06E2E7E2E08951A931A2F1A3011F092
:10028600791440F0E0E0EA936394A62DD7DF1A30A4
:1002960009F444C07394A89AA12FC3DFA8983EC05E
:1002A6000E94A7019D01D9012F5F3F4FEC911E2FA0
:1002B600E03019F0A12FE0DFF6CF0E94AC012496C2
:1002C60008951A931A2FE4B3E06FE4BBA29AA09A9A
:1002D600A19AAA98A898A998912EE12FE058E093A0
:1002E6006902E12FE054E0936A02A4E1B0E00E94C3
:1002F600B1010E949F010E949F010E949F01A0E2FE
:100306007BDF88EC90E00197F1F7A8E28ADFA4E0B2
:1003160088DFA5E886DFA6E084DFA2DF19910895CD
:10032600EA93EFB7EA93E1E0E41508950E94140119
:10033600A3E0B0E00C94B101A0E30E94FF0088ECBA
:1003460090E00197F1F708953A932A931A930A9346
:1003560008953B812A81198108810895109639F004
:10036600A89580ED97E00197F1F71197C9F70895E1
:00000001FF
