:020000020000FC
:1000000008E00EBF0FE50DBF0FEF04BB01BB0EEF05
:1000100002BB02E00E942F0005BB0E9428000DEFEA
:1000200002BB00E00E942F0005BB0E9428000BEFDE
:1000300002BB02E00E942F0005BB0E94280007EFD0
:1000400002BB04E00E942F0005BB0E942800DFCF06
:100050001FE02FEF2A95F1F71A95D9F70895003090
:1000600011F40FE30895013011F406E00895023011
:1000700011F40BE50895033011F40FE408950430F2
:1000800011F406E60895053011F40DE608950630E2
:1000900011F40DE70895073011F407E008950830D2
:0E00A00011F40FE70895093009F40FE60895F2
:00000001FF
