:040000000C942A0032
:100004000C9400000C9400000C9400000C9400006C
:100014000C9400000C9400000C9400000C9400005C
:100024000C9400000C9400000C9400000C9400004C
:100034000C9400000C9400000C9400000C9400003C
:100044000C9400000C9400000C9400000C9400002C
:10005400F894EE27ECBBF1E0FBBFEBBFE5BF8DE00E
:10006400A2E0BB27ED938A95E9F780E098E0A0E64B
:10007400ED930197E9F7EFE5EDBFE8E0EEBFC0E6E9
:10008400D2E00C944500EFEFE4BBEFE0E1BBEEEF10
:10009400E2BBE6E00ED0EDEFE2BBE6E60AD0EBEF22
:1000A400E2BBEFEB06D0E7EFE2BBEBED02D0EFCF24
:1000B400FFCFE5BBAAE0B0E00C946000109639F0E5
:1000C400A89580ED97E00197F1F71197C9F7089586
:00000001FF
