:100000000C942F000C9400000C9400000C94000041
:100010000C9400000C9400000C9400000C945C0004
:100020000C9400000C9400000C9400000C94000050
:100030000C9400000C9400000C9400000C94000040
:100040000C9400000C9400000C9400000C94000030
:100050000C94000001000100050054000000F89419
:10006000EE27ECBBF1E0FBBFEBBFE5BF8DE0A2E00C
:10007000BB27ED938A95E9F780E098E0A0E6ED9341
:100080000197E9F7E6E5F0E085919591009761F039
:10009000A591B59105901590BF01F00105900D92C5
:1000A0000197E1F7FB01F0CFEFE5EDBFE8E0EEBF30
:1000B000C0E6D2E00C946800EA93EFB7EA93550CDF
:1000C000552011F4E1E05E2EE991EFBFE99118951A
:1000D000EFEFE7BBE0E0EFBDECE0EEBDE0E0EDBD53
:1000E000ECBDE7BDE6BDEAE7EBBDE2E1EABDE0E07D
:1000F000E9BDE8BDE0E1E9BF789458BAFECFFFCF93
:00000001FF
