:0C0000000C944D010C9400000C940000C6
:10000C000C9400000C9400000C9400000C94000064
:10001C000C9400000C9400000C9400000C94000054
:10002C000C9400000C9400000C9400000C94000044
:10003C000C9400000C9400000C9400000C94000034
:10004C000C9400000C9400000507206000000000D8
:10005C000000005F00000007000700147F147F14ED
:10006C00242A7F2A12231308646236495522500031
:10007C0005030000001C2241000041221C00082A3C
:10008C001C2A0808083E0808005030000008080820
:10009C000808003030000020100804023E51494589
:1000AC003E00427F400042615149462141454B315F
:1000BC001814127F1027454545393C4A49493001EF
:1000CC00710905033649494936064949291E003646
:1000DC003600000056360000000814224114141497
:1000EC0014144122140800020151090632497941C5
:1000FC003E7E1111117E7F494949363E41414122D4
:10010C007F4141221C7F494949417F090901013E38
:10011C00414151327F0808087F00417F4100204057
:10012C00413F017F081422417F404040407F020440
:10013C00027F7F0408107F3E4141413E7F0909093F
:10014C00063E4151215E7F091929464649494931EC
:10015C0001017F01013F4040403F1F2040201F7F95
:10016C002018207F6314081463030478040361517E
:10017C0049454300007F4141020408102041417F62
:10018C00000004020102044040404040000102040F
:10019C000020545454787F48444438384444442014
:1001AC00384444487F3854545418087E09010208D6
:1001BC001454543C7F0804047800447D40002040D3
:1001CC00443D00007F10284400417F40007C04180F
:1001DC0004787C0804047838444444387C1414149F
:1001EC0008081414187C7C0804040848545454203F
:1001FC00043F4440203C4040207C1C2040201C3CC0
:10020C004030403C44281028440C5050503C44642E
:10021C00544C44000836410000007F000000413679
:10022C00080002010204027F4141417F00010307E3
:10023C000F1F3F7FFF001027E80364000A00010036
:10024C00001000011000010040002000010001001E
:10025C00416C692053686F6B6F6F68690034303084
:10026C00353231343737000001002D4E414E0049F4
:10027C004E4600000800040054020D0060025C02AF
:10028C000A006D0269020100970274020000F894E2
:10029C00EE27ECBBF1E0FBBFEBBFE5BF8DE0A2E0CE
:1002AC00BB27ED938A95E9F780E098E0A0E6ED9303
:1002BC000197E9F7E0E8F2E085919591009761F0FC
:1002CC00A591B59105901590BF01F00105900D9287
:1002DC000197E1F7FB01F0CFEFE5EDBFE8E0EEBFF2
:1002EC00C0E6D2E00C947A012697EFEFEABBE0E08F
:1002FC00EBBBEFEFE7BBE0E0E8BBE4BBE5BBE1BB8E
:10030C00E2BBE3BFE2BFECBFEFBDEEBDEDBDECBDAC
:10031C00E7BDE6BDEBBDEABDE9BDE8BDE2BDE5BDAF
:10032C00E4BDE3BDE9BFE5BFE4BFEAB9E0E8E8B985
:10033C00E0E0E0BFE6B9EDB9E6BFE4E5F0E0E88364
:10034C00F983E0E0EA83EB83EC83ED83DE0114D1E7
:10035C0075D1A2E3B0E00E94CC0BA0E6B2E00E9403
:10036C00B706E0E0EA93A7E30E94DC06ADE6B2E054
:10037C000E94B7060E944E0AE4E1EA93E5E0EA9394
:10038C00ECE2EA93A5E00E94EA06ECE2EA93E5E0EF
:10039C000E94540AE5E0EA93E4E10E945D0A0E949F
:1003AC00540AEAE0EA93E8E10E945D0AEA93E6E285
:1003BC00EA93A0E10E94EA06E6E2EA93E0E10E94F9
:1003CC00650A0E94650AEA93E9E6EA93A0E20E94B4
:1003DC00EA06E9E6EA93E0E2EA93E9E6EA93ADE3BA
:1003EC000E94EA06E9E6EA93EDE3EA93E7E1EA9391
:1003FC00ADE30E94EA06E7E1EA93EDE30E946F0A9F
:10040C000E946F0A0E94790AE8E1EA93EAE00E94EE
:10041C00790A0E944E0A4A926A92A5E00E94C1098A
:10042C00480C591C6A0C7B1CEAE7F0E0E415F50556
:10043C0019F4EFEFFFEF4F01EAE3F0E0E615F705F3
:10044C0019F4EFEFFFEF5F01E5E0F0E0E415F505DF
:10045C0019F4E1E0F0E04F01E5E0F0E0E615F70516
:10046C0019F4E1E0F0E05F01A4E6B0E00E94CC0BEF
:10047C00E5D0D1CFFFCF0000C09A00000895C098FE
:10048C00C498C59808951A93F6DF19B3C098E12F54
:10049C005EC01A930A930A2FE0E0EABBC19AC29895
:1004AC00E02FEF5F1E2F10FF02C0C49A01C0C4984A
:1004BC0011FF02C0C59A01C0C598E5DFE078E9F7E5
:1004CC000C94B8050E947F0AA02FE3DF0E94840AD7
:1004DC0012C1E0919502EA93E0919402EF73E0640B
:1004EC00AE2FF0DFE0919502EA93E0919602E86B73
:1004FC00AE2FE8DF08950E947F0A00939402E02F4C
:10050C00E295EF70E695E695E093950210939602CE
:10051C00E0DFF1C0A0919402AF5FA0939402A038E9
:10052C0018F0E0E0E0939402E0919402EF7331F460
:10053C00E0919402EA93A0919602DDDF08951A935C
:10054C001A2FA0919502A5DFC29A0E94840A1991D4
:10055C000895A09195029DDFE0E0EABBC19AC29A92
:10056C0092DF08950E947F0A0A93E12F0E948C0A61
:10057C00F0DFAFDFEEDFBFC00E94790B9D01B89AB0
:10058C00B99ABA9ABB9AC39ABC9ABD9A78DFC398A7
:10059C00A4E6B0E00E94CC0BC39A10E0123040F4F9
:1005AC001A93AFE38FDF1A931395A0EC8BDFF6CF82
:1005BC00E1E0E0937702E0E0E0937802022E032A78
:1005CC00A1F0D901ED91FD91E0937B02F0937C02B7
:1005DC00D9011296ED91FD91E0939002F093910266
:1005EC00D90114960E94AB0B0AC0E0E0F0E0E09356
:1005FC007B02F0937C02E0939002F0939102E093E3
:10060C009202F0939302E1E0E0937D02E0937E028C
:10061C00E0937F02EFEFE0938002E1E0E09387024A
:10062C00E8E8F2E0FA93EA93EFEFEA93A8E0B0E09F
:10063C000E94CA0903D0E1E00C94C4060E94790B15
:10064C0000E030E0E0917802E03009F00FEF383054
:10065C0078F4E0E0EA93A32F3F5F4DDF10E0A12F89
:10066C001F5FA03820F4A02F0E94920AF8CFEFCF82
:10067C00E0E0EA93A0E03FDFE0E0EA93A0E00E9434
:10068C00DC060C94C4060E94770B3A2F2E815F81F6
:10069C00503810F4203408F014C05A93A22F62DFA3
:1006AC001E2F17DFE22FE770A1E00E94890B0E2F9F
:1006BC00303011F0102B03C0E02FE0951E23A12F3A
:1006CC003EDF0E947E0B289608950E947F0A003818
:1006DC0010F4103410F0E0E00EC00A93A12F42DFAA
:1006EC001E2EE12FE770A1E00E94890BE12111F091
:1006FC00E1E001C0E0E019810881239608950E9491
:10070C00770B0A2F3E812F81588549854A93A52F57
:10071C0029DF1E2FDEDEE02FE73011F0E83031F458
:10072C002A93A02F0E94E7092E2F06C0E33011F464
:10073C00209502C0E03021F4E32FE0951E2302C087
:10074C00E23021F4E32FE2231E2B0CC0E13021F424
:10075C00E32FE2231E2706C0E43021F4E32FE095BB
:10076C00E22B1E23A12F0E94920A0E947E0B2A9636
:10077C000895AA9323970E94770BA889A03848F470
:10078C00AF85A03430F4AE85A03019F0AD85A03023
:10079C0009F4C8C1EE85E887A889BB27EE85F0E08F
:1007AC00AE0FBF1FA138E0E0BE0720F0A889E0E83B
:1007BC00EA1BEE872D85AF85BB27ED85F0E0AE0FEC
:1007CC00BF1FA134E0E0BE0720F0AF85E0E4EA1BD8
:1007DC00ED87A985A63009F05BC0EC85E13009F402
:1007EC00A1C1E33039F4E0919202F0919302309779
:1007FC0009F498C10885ED85E695E695E6953E2FBA
:10080C00E22FE77019F4AD852A17E9F0A02FBB276A
:10081C00E32FF0E00E94A30BAA85BB850E94960AE9
:10082C00269526952695532F5F935F5FE22FAF9108
:10083C00EA1748F0102FE12F1150E03019F00E9408
:10084C009B0AF9CFF1CFAE850A1711F1EE85AA8577
:10085C00BB85F0E00E94960AED85E77009F03F5FDA
:10086C0020E02F932F5FE32FAF91AE1788F41E85F6
:10087C001F931F5FE02FAF91AE1718F40E949B0AD5
:10088C00F7CFEE85AE81BF81F0E00E94960AE9CFEA
:10089C00EF85E7703E2FED85E03009F443C1EA8522
:1008AC00FB85EE83FF8310E00889303009F065C0CA
:1008BC00AD85A83008F45CC0E985E03011F0E33078
:1008CC0009F402C0E73009F402C0E83009F402C0B0
:1008DC00E63009F402C0E93009F402C0EA3021F430
:1008EC000A93E8890E948C0A1F931F5FEE85AF91D3
:1008FC00AE17B8F5A985A63061F42BDEEADD0E94AF
:10090C00A80AFA93EA9325DEAE2F0E942C0A02DE87
:10091C0027C0E985E93011F450E00EC0EA3011F43B
:10092C005FEF0AC00E94A80A0E94B10A5E2FE985F7
:10093C00E73011F0E83021F40E94B70A5E2F06C0B0
:10094C00E33011F4509502C0E03021F4A52F0E9441
:10095C00920A06C00E94BB0AEFEFEA93AD85CFDE88
:10096C00C3CFEF85E85FEF87ED85E850ED87D1C009
:10097C005D8520E0E0E0ED877AC0E32FAD85AE0F1A
:10098C00A93020F42D85E0E0ED8703C0E8E0E31BFF
:10099C002E2F3A93A22F0E94D9094E2FE985E630CB
:1009AC00F1F41F931F5FEE85AF91AE17B8F40E9460
:1009BC00C10AAE2FE32F0E94910B0E94C80AE32FAD
:1009CC00A42F0E94910BE095E1215E2B0E94A80AB6
:1009DC00FA93EA93A52F0E942C0AE3CF2CC0E9309E
:1009EC0011F450E003C0EA30A9F45FEF0E94B70A9B
:1009FC00AE2FE32F0E94890B5E2F1F931F5FEE8596
:100A0C00AF91AE1730F40E94BB0A4A93A0E077DE98
:100A1C00F4CF11C01F931F5FEE85AF91AE1758F442
:100A2C000E94D30AAE2FE32F0E94890BEA934A93BC
:100A3C00AD8565DEEFCFED85E03009F473C0AD8593
:100A4C00A83028F4ED85E21B5E2FE0E003C0532FA5
:100A5C00ED85E850ED8710E0EF85E85FEF87E8E083
:100A6C00E31B2E2F0889EA85FB85EE83FF83E52F98
:100A7C00F0E0E85CFD4F4491E985E630F1F41F931A
:100A8C001F5FEE85AF91AE17B8F40E94C10AAE2F6E
:100A9C00E22F0E94890B0E94C80AE22FA42F0E9409
:100AAC00890BE095E1215E2B0E94A80AFA93EA9348
:100ABC00A52F0E942C0AE3CF2CC0E93011F450E092
:100ACC0003C0EA30A9F45FEF0E94B70AAE2FE22F01
:100ADC000E94910B5E2F1F931F5FEE85AF91AE1797
:100AEC0030F40E94BB0A4A93A0E009DEF4CF11C097
:100AFC001F931F5FEE85AF91AE1758F40E94D30A77
:100B0C00AE2FE22F0E94910BEA934A93AD85F7DD4D
:100B1C00EFCFE885AA85BB85F0E0EA0FFB1FEA87DB
:100B2C00FB87B9CE0E947E0B619608950E94E00A65
:100B3C001CF0E0E0F0E016C00038E0E01E071CF00E
:100B4C00EFE7F0E00FC00DC00E94E00A1CF0E0E0FF
:100B5C00F0E008C00034E0E01E071CF0EFE3F0E02A
:100B6C0001C0F8010991199108950E947F0A0A9316
:100B7C001A93A091770287DD0C94E309BA93AA9398
:100B8C0023970E94770B0E94E70A8F01002E012AFF
:100B9C0019F4E0E0F0E05FC00E94EC0A0F820E94C2
:100BAC00EC0A0E820E94EC0A0886EB85A885EA17EF
:100BBC0018F4E0E0F0E04FC0F8010F5F1F4F5491C4
:100BCC00A885BB27EE27A50FBE1FEB85F0E0EA1723
:100BDC00FB0718F0E0E0F0E03EC0EE81E695E6950C
:100BEC00E6954E2FEE81E77009F04F5FEF81E03014
:100BFC00A1F0A985BA85EC93A885EB85EA1BF0E0FA
:100C0C00DF01EF81F0E00E94A30BDF01E42FF0E0A5
:100C1C000E94A30BE00FF11F1EC09801E52FF0E01E
:100C2C000E0F1F1FA885AF5FA887A150EB85AE17CD
:100C3C0060F4F9012F5F3F4FA491B0E0E42FF0E096
:100C4C000E94A30B0E0F1F1FEDCFF901E491A98594
:100C5C00BA85EC93F8010E947E0B2C960895E0E087
:100C6C00E0937902A0917A02BB270E94E70A3196A1
:100C7C00E491F0E0AE0FBF1FE0917E02F0E0AE0F0A
:100C8C00BF1F62DFE0937A02089521970E94770BD1
:100C9C002A2F0E94E70A309709F45DC02A3009F424
:100CAC0055C02A93DE01179669DFAF01309721F406
:100CBC000E947E0B0C944C0AE0917D02AE81EA0FEF
:100CCC003E2FA0917902BB270E94F10A0138E0E087
:100CDC001E0718F0032F1127C2DFE0917902EA9367
:100CEC00E0917A02EA93E885EA930E94E70A31964A
:100CFC00E491EA93E1E0EA935A934A93A7E039DD51
:100D0C00E0917902AE81EA0FEA93E0917A02EA93DC
:100D1C00E0917D02EA930E94E70A3196E4910E94E9
:100D2C00F60AE0917902EA93A0917A020E94E70A0E
:100D3C003196E491EA0FEA933A93E0917E020E9495
:100D4C00F60AE0E8F0E0E017F10729F488DF0E94EA
:100D5C007E0B0C944C0A009379020E947E0B0C942F
:100D6C004C0A0E94790B9D01D9012F5F3F4FEC91EA
:100D7C001E2FE03019F0A12F88DFF6CF0E94800BD8
:100D8C00249608950E94000BE0918002E12319F053
:100D9C00E091770202C0E0917802AE2F0E944903E5
:100DAC00110F103009F411E0E12FEAC20E947F0A02
:100DBC00A02FBB27BBDEE0937902A12FBB27C4DE9B
:100DCC00E0937A020C94E309AA932B970E94770B79
:100DDC00AC89BB27ABDEEC8BAA89BB27A7DEEA8BE1
:100DEC00AB89BB27B1DEEB8BA989BB27ADDEE98BC9
:100DFC00EA89E0937902E989E0937A02E1E0E887F5
:100E0C00E989AB89EA1779F51C89AA891A1731F493
:100E1C001A93EC89EA93A1E0B5DFCBC0AA891A1723
:100E2C0030F4EA89E11B0E2F41E050E006C0AA899C
:100E3C00E12FEA1B0E2F4FEF5FEF3B89E0917F0212
:100E4C00EE830E94070B39F01A933A933395AA85D7
:100E5C0099DFEF83F6CFEF81E887140FE02F015075
:100E6C00E03059F7A6C0EA89AC89EA1741F53B890D
:100E7C00A9893A1730F4E989E31B2E2FE1E0F0E061
:100E8C0006C0A989E32FEA1B2E2FEFEFFFEFED87AA
:100E9C00FE871C89E0917F02EE830E94070B31F0E4
:100EAC001A9313950E940C0BEF83F7CFEF81E88711
:100EBC00ED853E0FE22F2150E03059F77AC0E091DA
:100ECC007F02EE830E94070B09F473C01C893B89D7
:100EDC00E1E02E2F0E2FAA89BB27EC89F0E0AE1B88
:100EEC00BF0BAD0155232AF40FEFFA010E94850BBD
:100EFC00AF01FA01EE0FFF1FEF87F88BA989BB2713
:100F0C00EB89F0E0AE1BBF0BAD87BE87AE85AA2385
:100F1C003AF42FEFED85FE850E94850BED87FE8759
:100F2C00ED85FE85EE0FFF1FEB87FC871A933A9336
:100F3C00A1E028DFE887E0E0E987EA87AD85BE8598
:100F4C004A175B07BCF0100FEB85FC850E94100B59
:100F5C00A985BA854A175B072CF4320FAF85B8897F
:100F6C000E94170B1A930E940C0BE887EA89E11771
:100F7C0051F718C0320FEF85F8890E94100BED85E0
:100F8C00FE85A985BA85EA17FB072CF4100FAB85F3
:100F9C00BC850E94170B1A930E940C0BE887E989F9
:100FAC00E31741F7EB89EF5FEB8BE989EF5FE98B97
:100FBC0089CF0E947E0B65960895BA93AA932397C6
:100FCC000E94770BED85E887E0917F02EF83E0913B
:100FDC007702EE83AA89BB27EF850E94F10AA989C3
:100FEC00BB27E8890E941E0BE8890E94250B71F033
:100FFC00E885E078F1F4AD85BE85EAE5F0E00E9485
:10100C002D0B1CF00E94360B0CF413C0332312F082
:10101C000E943B0BAF81A23020F02230E0E03E0773
:10102C000CF407C00E943F0B21F40A93A22FA1508D
:10103C009CDDE885E878E83891F0E885E078C9F43B
:10104C00AD85BE85A25FBE4F0E94480B3CF0AD85BE
:10105C00BE85A25FBE4F0E944D0B0CF40AC00E94CD
:10106C00520B38F00E94590B21F40A93A42FAF5F56
:10107C007CDDAA89BB27EF85F0E0AE1BBF0B8D0191
:10108C0011230AF445C0E885E278E23891F0E8854E
:10109C00E07811F5AD85BE85A65ABF4F0E94480B6E
:1010AC003CF0AD85BE85A65ABF4F0E944D0B0CF48B
:1010BC0013C0332312F00E943B0BAF81A23020F0FF
:1010CC002230E0E03E070CF407C00E943F0B21F4F5
:1010DC000A93A22FA15049DDE885E478E43871F039
:1010EC00E885E078A9F4AD85BE85EEE0F1E00E94DC
:1010FC002D0B1CF00E94360B0CF40AC00E94520BF4
:10110C0038F00E94590B21F40A93A42FAF5F2DDD08
:10111C00AA89BB27E8890E94F10AA989BB27EF8518
:10112C000E941E0BEF850E94250B81F0E885E0786C
:10113C00F1F4EB85FC85AD85BE85AE17BF072CF0B1
:10114C00E985FA85EA17FB070CF411C033237AF012
:10115C000E943B0BAF81A23050F0E02FEE5F0E945B
:10116C00620B29F4E02FEF5FEA93A22FFEDCE885F7
:10117C00E878E83871F0E885E078C1F4AD85BE8593
:10118C00E8E6F1E00E942D0B1CF00E94360B0CF4EB
:10119C000DC00E94520B50F0E02FEE5F0E946A0BC4
:1011AC0029F4E02FEF5FEA93A42FDFDCAA89BB2799
:1011BC00E889F0E0AE1BBF0B8D0111230AF450C07F
:1011CC00E885E278E23871F0E885E07809F5AD85DC
:1011DC00BE85E4EBF0E00E942D0B1CF00E94360B58
:1011EC000CF416C03323A2F00E943B0BAF81A2304B
:1011FC0020F00230E0E01E070CF40AC0E02FE250B1
:10120C000E94620B29F4E02FE150EA93A22FADDC8F
:10121C00E885E478E43891F0E885E07809F5AD8567
:10122C00BE85AC54BF4F0E94480B3CF0AD85BE85CB
:10123C00AC54BF4F0E944D0B0CF412C00E94520BC9
:10124C0020F00230E0E01E070CF40AC0E02FE25060
:10125C000E946A0B29F4E02FE150EA93A42F85DC5D
:10126C000E947E0B639608950E94770B5A2F4E8135
:10127C00A885BB27E42FF0E0AE1BBF0B57DC1E2F5D
:10128C00A885BB27EE27A40FBE1F50DC0E2FAF8105
:10129C00BB27E52FF0E0AE1BBF0B56DC3E2FAF811A
:1012AC00BB27EE27A50FBE1F4FDC2E2F1A933A93A8
:1012BC000A93A32F89DD1A932A930A93A22F84DD14
:1012CC0056C00E94770B4A2FA885A03818F4AF811E
:1012DC00A03408F04CC050917F02E52F5150E03003
:1012EC0009F445C0EE81E03009F441C00E94070BBF
:1012FC000E2FF0E0A5E0B0E0AE1BBF0BFD010E948D
:10130C00990B0E949E0B9F0110E0403459F40E94EF
:10131C00720B1A93A02FA8DF0E94720B0A93A12FB5
:10132C00A3DF0FC00E94720B1A930A93E42FF0E014
:10133C00FA93EA93E0E0F0E0FA93EA93A0E0B0E0ED
:10134C003CDE1F5F33231AF4E12FF0E008C001509C
:10135C00A12FBB27E02FF0E0AE1BBF0BFD01EE0F62
:10136C00FF1F31962E0F3F1F011778F6B6CF0E9444
:10137C007E0B299608950E94000B1A93AFE8A1DF0B
:10138C000E94800B26960895BA93AA93B981A881DE
:10139C00109631F0FC81EB816A8161931197E9F72A
:1013AC00EB81FC8151C00E947F0AE12FF0E0E85CE8
:1013BC00FD4FA491E02F0E94890B1981088123967F
:1013CC0008950E94790B0A2F3C81E02FE73011F031
:1013DC00EA3019F41091770209C0E93019F4109130
:1013EC00780204C0E83089F410918702E091780209
:1013FC00E03039F0103011F0EFEF24C0E32FE0951E
:10140C0021C0103011F4E0E01DC0E32F1BC00E947E
:10141C00790B8D013C81E32FE13019F4F801E49153
:10142C0011C0E23021F4D8010E94AF0B0BC0E330A5
:10143C0039F4D801E0919002F0919102099502C023
:10144C00D801EC910E94800B259608950E94790B8F
:10145C001A2F2C813D810E81E02FE03021F4E12FF9
:10146C00D901EC9311C0E23029F4E12FD9010E948B
:10147C00BB0B0AC0E33041F43A932A93A12FE091BD
:10148C009202F091930209950E94800B2796089581
:10149C00ACEDB5E00E94CC0B0C942403EA93ECE287
:1014AC00EA93AAE00E94EA06E4E1EA930895EA933B
:1014BC00AAE00E94EA06E6E2EA93EAE00895EA93DB
:1014CC00E0E4EA93A4E00E94EA06EDE7EA93E0E2A6
:1014DC000895EA93E7E1EA93A1E20E94EA06E4E0C8
:1014EC00EA93E1E20895EA93E8E1EA93A7E10C9428
:1014FC00EA061A930A931A2F0A810895C198EFEFFE
:10150C00EABB1BBB0E9441020C944502E695E69592
:10151C00E695AE2F0C9481020E94A5020C949002C9
:10152C00EA0FFB1FEE83FF830895EC85EA93EF81AE
:10153C00F8853196EF83F8873197FA93EA93A0E018
:10154C000C942C0AEC85EA93EF81F8853196EF83A5
:10155C00F8873197089566277727DF01CB010C9424
:10156C000D0A5A93AA850C94E7090A930395E88906
:10157C00EA935A9308950A930395A8890E94B80296
:10158C00E42308955E2FEC85EA93AF81B885882714
:10159C0099270E940D0A1E2E08950A930395E88937
:1015AC00EA93EE85EA93E985FA853196E987FA871D
:1015BC003197D1CF1A930A938D010024001601069E
:1015CC000895E0917B02F0917C020895F8010F5F81
:1015DC001F4F04900895F0E0EA0FFB1F8F01089550
:1015EC00EA93E0E0EA93E0E0F0E0FA93EA93A9E012
:1015FC000C94BF0378D01A2F0C813D813A930A9337
:10160C000895EE81E150EE83EF5F08953A93AA8539
:10161C000C94C806A985BA85EA0FFB1FE987FA87DF
:10162C000895E985FA85EA1BFB0BE987FA8708958B
:10163C00F0E0AE1BBF0B9D01A989BB270895F0E01C
:10164C00EA0FFB1FAF01E885E178E1380895EA1B4A
:10165C00FB0B0F01DF01EB85FC85AE17BF0708956F
:10166C00E985FA85E015F10508950A93A22F0C94EB
:10167C00BB050A93A22FA2500E946B03AE2FEE81E2
:10168C00EA170895EB85FC85AE17BF070895E98529
:10169C00FA85EA17FB0708950A93A42F0E94BB054D
:1016AC00AF81A23008950A93A42FAE5F0E946B0302
:1016BC00AE2FEE81EA170895EA93A22F0E946B03D6
:1016CC00AE2FEE81EA170895EA93A42F0E946B03C4
:1016DC00AE2FEE81EA170895E885EA93E885EA9340
:1016EC0008955A934A933A932A931A930A93089516
:1016FC005D814C813B812A81198108810895F19586
:10170C00E195F0400895EE230E2EEA2F19F0EE0F1E
:10171C000A94E9F70895EE230E2EEA2F19F0E695B8
:10172C000A94E9F70895EE0FFF1FEE0FFF1F0895BF
:10173C00F595E795F595E7950895FA9FF02DEB9FB4
:10174C00F00DEA9FE02DF10D0895ED91FC911197AC
:10175C000895E199FECFFF93FFB7F894AEBBBFBBE2
:10176C00E09AEDB3FFBFFF910895E19B02C0A895ED
:10177C00FCCF9FB7F894AEBBBFBBE09A8DB3E81714
:10178C0019F0EDBBE29AE19A9FBF0895109639F0DB
:10179C00A89580ED97E00197F1F71197C9F7089597
:00000001FF
