:060000000C9456000C9464
:1000060000000C9400000C9400000C9400000C946A
:1000160000000C9400000C9400000C9400000C945A
:1000260000000C9400000C9400000C9400000C944A
:1000360000000C9400000C9400000C9400000C943A
:1000460000000C9400000C9400000C940000102793
:10005600E80364000A00010000100001100001001E
:1000660054494D453E2000444154453E200032301F
:1000760000416C692053686F6B6F6F68690080C0C0
:1000860001002D4E414E00494E4600000700600219
:100096006600070067026D00020078028400010016
:1000A6007E0286000000F894EE27ECBBF1E0FBBF71
:1000B600EBBFE5BF8DE0A2E0BB27ED938A95E9F79C
:1000C60080E098E0A0E6ED930197E9F7E2E9F0E039
:1000D60085919591009761F0A591B5910590159040
:1000E600BF01F00105900D920197E1F7FB01F0CFFA
:1000F600EFE5EDBFE8E0EEBFC0E6D2E00C9483008A
:10010600E0E0EBBBEABBE8BBE7BBE5BBE4BBE2BBBD
:10011600E1BB0E949102E0E0EA93EA93A0E097D067
:10012600A4E15AD110D1A0E6B2E034D1E0E0EA93DE
:10013600A1E0FAD0A7E6B2E02DD1E5E0F0E0FA932F
:10014600EA93E4E0F0E0FA93EA93A7E0B0E098D00F
:10015600E6E0F0E0FA93EA93E9E0F0E0FA93EA9356
:10016600E8E0F0E0FA93EA93ABE0B0E0A2D0E6E094
:10017600EA93A0E0D9D0E52DF0E0FA93EA93D60110
:100186000E941E02D6010E945902E42DF0E0FA9365
:10019600EA93A0916E02B0916F020E941E02A09196
:1001A6006E02B0916F020E945902E72DF0E0FA93B9
:1001B600EA93A0917002B09171020E941E02A09172
:1001C6007002B0917102E6D0E6E0EA93A1E0ACD00D
:1001D600E92DF0E0FA93EA93A0917202B0917302CE
:1001E6000E941E02A0917202B09173020E945902EF
:1001F600E82DF0E0FA93EA93A0917402B0917502AB
:100206000E941E02A0917402B09175020E945902CA
:10021600A4E7B0E0CED0EB2DF0E0FA93EA93A091FC
:100226007602B09177020E941E02A0917602B091EA
:100236007702B0D0E0E0EA93A2E076D0A7E7B0E09C
:10024600B8D0A8EEB3E00E94E1026CCFFFCFAA932C
:10025600EA81E370EA83E981E03019F0EA81E0613E
:10026600EA83E881E03019F0EA81E068EA830E94D7
:100276005F02A7E00E94C902AA810E946402AAC086
:10028600BA93AA930E945F02A0E00E9464020E94B1
:1002960068020E9470020E9477020E947D02AE2FC1
:1002A6000E944C02AC81BD81EC930E94A502269669
:1002B6000895BA93AA930E945F02A3E00E94640283
:1002C6000E946802AE81BF81EC930E947702AC81E6
:1002D600BD81EC930E9477020E947D020E9470020B
:1002E6000E94A50228960895AA93EBB3EF70AE2F4D
:1002F600E881E07FEA2BEBBB8DE08A95F1F7DA9A8D
:100306008DE08A95F1F7DA988DE08A95F1F791C03C
:10031600AA93A881E9DFE881E295E883A881E4DF72
:1003260085E88A95F1F785C0AA93E881F0E0E85858
:10033600FD4FE081A981AE0FEBDFA980E881E09354
:100346007C0222960895A2E00E948302ACE0E0DFE0
:10035600A1E00E948302E0E0E0937C02AE2E0895C5
:10036600AA93A881AA3021F0E0917D02AE1660F032
:10037600E0E0EA93A0917C02AF5FA0937C02D4DF19
:10038600A881AA3009F455C0A394D89AA881C0DFE1
:10039600D8984FC0BA93AA931A93A981BA81ED91BE
:1003A600A983BA831E2FE03019F0A12FD9DFF5CF2C
:1003B60010C0BA93AA931A93E981FA813196E98318
:1003C600FA833197E4911E2FE03019F0A12FC8DF90
:1003D600F3CF188123960895AA93EAB3E06FEABB98
:1003E600D29AD09AD19ADA98D898D998E881E09397
:1003F6007D02E058E0937A02E881E054E0937B02C4
:10040600A4E1B0E00E94E1020E9489020E948902F2
:100416000E948902A0E268DF88EC90E00197F1F77C
:10042600A8E276DFA4E074DFA5E872DFA6E070DF5D
:100436008ADF21960895BA93AA93A991B991E99171
:10044600F99130962AF4E095F09531966DE26D9328
:10045600E89480E197E20DD088EE93E00AD084E636
:10046600992707D08AE005D06E2F10D066276C93A7
:1004760008956627E817F90720F06395E81BF90B3E
:10048600C9F7662311F416F008956894605D6D93BC
:100496000895AA93E881E295EF70AE2FAA0FAA0FEE
:1004A600EA0FEE0FA991AF70EA0F08950E94CD01F1
:1004B600ABE6B0E00C94DC010E949602A0ED0C9431
:1004C600C9020E94C9020C94A5020E949602A1EDDF
:1004D6000E94C902A1E00C94AF02AE2F0E944C020A
:1004E600A881B981EC930895A1E00E94AF02AE2FD6
:1004F6000C944C02AA81BB81EC93A0E00C94AF0251
:100506000E948B01A3E0B0E00C94E102A0E30E94FC
:10051600770188EC90E00197F1F70895A898A998DB
:10052600A09AA19815C0A198A098EE270000999BC3
:100536000895989B089504D0A19A02D0A09AE1E06C
:1005460065E007C0A19AA09A03D0A098F9DFA19808
:100556006AE06A95F1F7089578E0A098F1DF989B34
:10056600FECFEEDF889499990894A09AF1DFEE1FEA
:100576007A9599F7AA2311F4A19801C0A19AE0DF10
:10058600A098E6DFA09ADCDFA198DACF78E0AA0F80
:1005960010F4A19801C0A19ADBDFA098D1DF989B47
:1005A600FECFCEDFA09A7A9591F7A198C9DFA098E1
:1005B600CFDFE1E09999EE27A09AC2CF109639F0E5
:1005C600A89580ED97E00197F1F71197C9F708957F
:00000001FF
