:060000000C943B000C947F
:1000060000000C9400000C9400000C9400000C946A
:1000160000000C9400000C9468000C9400000C94F2
:1000260000000C9480000C9400000C9400000C94CA
:1000360000000C9400000C9400000C9400000C943A
:1000460000000C9400000C9400000C9400003F0685
:100056005B4F666D7D077F6F777C395E7971000037
:100066000000000000000F270A00040064000000E2
:10007600F894EE27ECBBF1E0FBBFEBBFE5BF8DE0EC
:10008600A2E0BB27ED938A95E9F780E098E0A0E629
:10009600ED930197E9F7EEE6F0E0859195910097EB
:1000A60061F0A591B59105901590BF01F0010590FD
:1000B6000D920197E1F7FB01F0CFEFE5EDBFE8E028
:1000C600EEBFC0E6D2E00C949500EA93FA93EFB740
:1000D600EA93F30131963F01E1E0F0E0EA15FB0512
:1000E60011F05F0105C0F20131972F01AA24BB244C
:1000F600E991EFBFF991E9911895AA93BA93EA931A
:10010600FA93EFB7EA93F40131964F01A7E0B0E016
:100116000E94AB014F01E991EFBFF991E991B991C5
:10012600A9911895E0E0EABBEBBBE7BBE8BBEFEFB4
:10013600E4BBE0E0E5BBEFEFE1BBE0E0E2BBECE017
:10014600E3BFE0E0E2BFECE7ECBFE0E0EFBDEBE0F1
:10015600EEBDE0E0EDBDECBDE7BDE6BDE4EFEBBD19
:10016600E3E2EABDE0E0E9BDE8BDE2BDE5BDE4BD30
:10017600E3BDE2E1E9BFE0E0E5BFE4BFEAB9E0E8FC
:10018600E8B9E0E0E0BFE6B9EDB9E6BF7894E09102
:100196006002F09161024E165F060CF42601C61449
:1001A600D70424F46090600270906102E8EEF3E0F8
:1001B600E0937202F0937302E0E0E0937402E0933E
:1001C6007502A0917202B0917302119734F1E09119
:1001D6007402F0917502A2E6B2E07BD0D20183D020
:1001E600E0917402F0917502AAE6B2E072D0D301F2
:1001F6007AD0A0917202B0917302EAE0F0E00E9418
:100206009801E0937202F0937302A4E7B2E0ED91D5
:10021600FD913196FE93EE93D4CFF401309739F4E5
:10022600EEEFE2BBE0916202F09163024CC0E13076
:10023600A0E0FA0739F4EDEFE2BBE0916402F09139
:10024600650241C0E230A0E0FA0739F4EBEFE2BB09
:10025600E0916602F091670236C0E330A0E0FA074B
:1002660039F4E7EFE2BBE0916802F09169022BC036
:10027600E430A0E0FA0739F4EFEEE2BBE0916A025F
:10028600F0916B0220C0E530A0E0FA0739F4EFEDFB
:10029600E2BBE0916C02F0916D0215C0E630A0E081
:1002A600FA0739F4EFEBE2BBE0916E02F0916F02D0
:1002B6000AC0E730A0E0FA0751F4EFE7E2BBE091AD
:1002C6007002F0917102EC5AFF4F049005BA5FCFAD
:1002D600FFCFEE0FFF1FEA0FFB1FBF01E091720277
:1002E600F091730208950E949801DF01EAE0F0E0C0
:1002F6000E949D01DB01ED93FC930895F195E19534
:10030600F04008950024112490E1AA0FBB1F001CA1
:10031600111C0E1A1F0A18F40E0E1F1E01C0A16032
:100326009A9599F7FD01D00108951CD0EBDF0EF4E4
:10033600E5DF0895E894B7FF04C0B195A195B040F4
:100346006894F7FDDBDFDEDFFD010EF4D7DF0895ED
:10035600E894F7FF02C0D2DF6894EA23FB230EF489
:10036600CDDF0895E894F7FF02C0C8DF6894B7FFB1
:1003760006C0B195A195B04000F8039400FA08951F
:00000001FF
